:100000000C942A000C943F000C943F000C943F0089
:100010000C943F000C943F000C943F000C943F0064
:100020000C943F000C943F000C943F000C943F0054
:100030000C943F000C943F000C943F000C943F0044
:100040000C943F000C943F000C943F000C943F0034
:100050000C943F0011241FBECFE5D8E0DEBFCDBF1A
:1000600010E0A0E6B0E0E8E9F5E302C005900D92EB
:10007000A63CB107D9F70E94E0190C94CA1A0C9457
:100080000000EF92FF920F931F937B018C0120E001
:1000900030E040E05FE40E94410388238CF0C80117
:1000A000B70120E030E040E05FE40E94B9010E9427
:1000B000A1039B01AC01205030404040504806C095
:1000C000C801B7010E94A1039B01AC01B901CA019B
:1000D0001F910F91FF90EF900895A0E0B0E0E3E74B
:1000E000F0E00C94931ADC012B01FA019C91923000
:1000F00008F439C1EB018881823008F433C19430AF
:1001000069F4843009F02FC111969C91119789816F
:10011000981709F428C1A0E6B0E025C1843009F49D
:1001200021C18230A9F4923009F01DC19A01AD01BC
:1001300088E0EA010990AE01E90109929E0181502F
:10014000C1F7E201898111969C918923818308C1BD
:10015000923009F407C112962D903C901397EB0151
:100160008A819B811496AD90BD90CD90DC901797BD
:10017000EC80FD800E811F819101281B390BB90194
:1001800037FF04C066277727621B730B6032710547
:100190000CF061C0121613066CF537014801062EEB
:1001A00004C096948794779467940A94D2F721E0D8
:1001B00030E040E050E004C0220F331F441F551FC1
:1001C0006A95D2F721503040404050402E213F21C7
:1001D00040235123211531054105510521F021E02E
:1001E00030E040E050E079018A01E628F72808294C
:1001F00019293CC0232BD1F1260E371E35014601AB
:10020000062E04C096948794779467940A94D2F744
:1002100021E030E040E050E004C0220F331F441FD3
:10022000551F6A95D2F721503040404050402A2156
:100230003B214C215D21211531054105510521F05E
:1002400021E030E040E050E059016A01A628B728DB
:10025000C828D9280BC0821593052CF01C01AA24AC
:10026000BB24650103C0EE24FF24870111969C91F5
:10027000D20111968C91981709F445C0992339F051
:10028000A80197012A193B094C095D0906C0A6017E
:1002900095012E193F09400B510B57FD08C01182E3
:1002A0003382228224833583468357831DC081E0B5
:1002B00081833382228288279927DC01821B930B5A
:1002C000A40BB50B84839583A683B7830DC0220F3F
:1002D000331F441F551F24833583468357838281F0
:1002E000938101979383828324813581468157814D
:1002F000DA01C9010197A109B1098F5F9F4FAF4F83
:10030000BF4328F30BC0918333822282EA0CFB1C8B
:100310000C1D1D1DE482F5820683178383E0808314
:10032000248135814681578157FF1AC0C901AA2708
:1003300097FDA095BA2F81709070A070B0705695FF
:10034000479537952795822B932BA42BB52B848328
:100350009583A683B7838281938101969383828359
:10036000DF0101C0D201CD01CDB7DEB7E2E10C94CF
:10037000AF1AA0E2B0E0EFEBF1E00C949F1A6983B2
:100380007A838B839C832D833E834F835887E9E058
:10039000EE2EF12CEC0EFD1ECE010196B7010E944F
:1003A000CA048E010F5E1F4FCE010596B8010E9450
:1003B000CA048A8991E089278A8BC701B801AE01F6
:1003C000475E5F4F0E946D000E94F503A096E6E035
:1003D0000C94BB1AA0E2B0E0E0EFF1E00C949F1A9D
:1003E00069837A838B839C832D833E834F835887D5
:1003F000F9E0EF2EF12CEC0EFD1ECE010196B701B7
:100400000E94CA048E010F5E1F4FCE010596B801EF
:100410000E94CA04C701B801AE01475E5F4F0E9447
:100420006D000E94F503A096E6E00C94BB1AA0E2D2
:10043000B0E0EDE1F2E00C94931A69837A838B8348
:100440009C832D833E834F835887CE010196BE0146
:10045000675F7F4F0E94CA04CE010596BE016F5EA2
:100460007F4F0E94CA049985923088F08989823032
:10047000C8F0943019F4823051F404C0843029F467
:10048000923081F480E690E0C6C0923049F420E0DA
:100490009A858A89981321E02A87CE010996BBC0E4
:1004A000823049F420E09A858A89981321E02A8BCA
:1004B000CE014196B0C02D843E844F8458886D880B
:1004C0007E888F88988CEE24FF248701AA24BB2481
:1004D000650140E050E060E070E0E0E0F0E0C10184
:1004E00081709070892BE9F0E60CF71C081D191D2E
:1004F0009A01AB012A0D3B1D4C1D5D1D80E090E073
:10050000A0E0B0E0E614F7040805190520F481E046
:1005100090E0A0E0B0E0BA01A901480F591F6A1F9E
:100520007B1FAA0CBB1CCC1CDD1C97FE08C081E005
:1005300090E0A0E0B0E0A82AB92ACA2ADB2A3196C6
:10054000E032F10549F0660C771C881C991C569422
:10055000479437942794C3CFFA85EA892B893C893D
:100560008B859C85280F391F2E5F3F4F17C0CA010E
:1005700081709070892B61F016950795F794E79438
:1005800080E090E0A0E0B0E8E82AF92A0A2B1B2BD3
:1005900076956795579547952F5F3F4F77FDE7CF46
:1005A0000CC0440F551F661F771F17FD4160EE0CEE
:1005B000FF1C001F111F21503040403090E05907B0
:1005C00090E0690790E4790760F32B8F3C8FDB01A3
:1005D000CA018F779070A070B07080349105A1052A
:1005E000B10561F447FD0AC0E114F10401051105EC
:1005F00029F0405C5F4F6F4F7F4F40781A8EFE1797
:1006000011F081E08A8F4D8F5E8F6F8F78A383E02A
:10061000898FCE0149960E94F503A096E2E10C94E1
:10062000AF1AA8E1B0E0E7E1F3E00C949F1A698308
:100630007A838B839C832D833E834F83588789E005
:10064000E82EF12CEC0EFD1ECE010196B7010E94A2
:10065000CA048E010F5E1F4FCE010596B8010E949D
:10066000CA048985823040F08989823028F0C70128
:10067000B8010E94420501C08FEF6896E6E00C9435
:10068000BB1AA8E1B0E0E7E4F3E00C949F1A698399
:100690007A838B839C832D833E834F83588789E0A5
:1006A000E82EF12CEC0EFD1ECE010196B7010E9442
:1006B000CA048E010F5E1F4FCE010596B8010E943D
:1006C000CA048985823040F08989823028F0C701C8
:1006D000B8010E94420501C08FEF6896E6E00C94D5
:1006E000BB1AA8E1B0E0E7E7F3E00C949F1A698336
:1006F0007A838B839C832D833E834F83588789E045
:10070000E82EF12CEC0EFD1ECE010196B7010E94E1
:10071000CA048E010F5E1F4FCE010596B8010E94DC
:10072000CA048985823040F08989823028F0C70167
:10073000B8010E94420501C081E06896E6E00C9491
:10074000BB1AACE0B0E0E7EAF3E00C94A31A6983CB
:100750007A838B839C83CE010196BE016B5F7F4FB2
:100760000E94CA048D81823061F1823050F1843060
:1007700021F48E81882351F12EC02F81388537FDD9
:1007800020C06E812F3131051CF06623F9F023C0A3
:100790008EE190E0821B930B29853A854B855C8521
:1007A00004C056954795379527958A95D2F76623C5
:1007B000B1F050954095309521953F4F4F4F5F4F89
:1007C0000EC020E030E040E050E009C02FEF3FEFE6
:1007D0004FEF5FE704C020E030E040E050E8B901AF
:1007E000CA012C96E2E00C94BF1ADF92EF92FF92BE
:1007F0000F931F93FC01E480F58006811781D1805F
:100800008081823048F480E090E0A0E1B0E0E82A06
:10081000F92A0A2B1B2BA5C0843009F49FC0823013
:1008200021F4EE24FF24870105C0E114F104010541
:10083000110519F4E0E0F0E096C0628173819FEF4A
:10084000623879070CF05BC022E83FEF261B370BBC
:100850002A3131052CF020E030E040E050E02AC0A1
:10086000B801A701022E04C0769567955795479564
:100870000A94D2F781E090E0A0E0B0E004C0880FD5
:10088000991FAA1FBB1F2A95D2F70197A109B10989
:100890008E219F21A023B1230097A105B10521F04E
:1008A00081E090E0A0E0B0E09A01AB01282B392B69
:1008B0004A2B5B2BDA01C9018F779070A070B07062
:1008C00080349105A105B10539F427FF09C0205CEA
:1008D0003F4F4F4F5F4F04C0215C3F4F4F4F5F4F23
:1008E000E0E0F0E02030A0E03A07A0E04A07A0E412
:1008F0005A0710F0E1E0F0E079018A0127C0603882
:10090000710564F5FB01E158FF4FD801C7018F77EE
:100910009070A070B07080349105A105B10539F4D4
:10092000E7FE0DC080E490E0A0E0B0E004C08FE3FB
:1009300090E0A0E0B0E0E80EF91E0A1F1B1F17FFB1
:1009400005C016950795F794E794319687E01695BC
:100950000795F794E7948A95D1F705C0EE24FF2414
:100960008701EFEFF0E06E2F679566276795902F70
:100970009F77D794DD24D7948E2F8695492F462BC9
:10098000582F5D29B701CA011F910F91FF90EF9079
:10099000DF900895FC01DB01408151812281622FAB
:1009A0006F7770E0221F2227221F9381892F880FE3
:1009B000822B282F30E0991F9927991F11969C931D
:1009C000119721153105A9F54115510561057105ED
:1009D00011F482E037C082E89FEF13969C938E93C8
:1009E00012979A01AB0167E0220F331F441F551F76
:1009F0006A95D1F783E08C930DC0220F331F441FFB
:100A0000551F12968D919C911397019713969C9365
:100A10008E931297203080E0380780E0480780E40A
:100A2000580758F314962D933D934D935C93179765
:100A300008952F3F310579F4411551056105710580
:100A400019F484E08C93089564FF03C081E08C93D3
:100A500012C01C9210C02F57304013963C932E9317
:100A6000129783E08C9387E0440F551F661F771F12
:100A70008A95D1F7706414964D935D936D937C9332
:100A8000179708951F93DC01FB019C91923008F4A5
:100A900047C08081823008F443C0943051F41196ED
:100AA0001C91843099F58181682F70E0611B710978
:100AB0003FC0843021F0923031F48230B9F181812D
:100AC000882389F12DC011961C9111978230F1F085
:100AD00081811817D9F412962D913C911397828138
:100AE00093818217930794F028173907BCF0149666
:100AF0008D919D910D90BC91A02D248135814681D1
:100B00005781281739074A075B0718F4112341F06A
:100B10000AC082179307A407B50740F4112319F000
:100B200061E070E005C06FEF7FEF02C060E070E051
:100B3000CB011F910895DF93CF93CDB7DEB7E59733
:100B40000FB6F894DEBF0FBECDBF1B821A8290C0D5
:100B5000198287C08B81A82FB0E08A81682F70E04E
:100B60008981482F50E0CA019C01220F331F240FB6
:100B7000351FCB01880F991F860F971F880F991F6C
:100B8000880F991F820F931FFC01E859FF4F408186
:100B9000CD01880F991F8A0F9B1F9E012F5F3F4F2A
:100BA000820F931FFC01359640838B81A82FB0E004
:100BB0008A81682F70E08981482F50E0CA019C012A
:100BC000220F331F240F351FCB01880F991F860F6B
:100BD000971F880F991F880F991F820F931FFC0181
:100BE000E759FF4F4081CD01880F991F8A0F9B1F46
:100BF0009E012F5F3F4F820F931FFC01369640836B
:100C00008B81A82FB0E08A81682F70E08981482FFE
:100C100050E0CA019C01220F331F240F351FCB0166
:100C2000880F991F860F971F880F991F880F991F8C
:100C3000820F931FFC01E659FF4F4081CD01880FC1
:100C4000991F8A0F9B1F9E012F5F3F4F820F931F9B
:100C5000FC013796408389818F5F89838B818F5F09
:100C60008B838981843008F475CF8A818F5F8A8372
:100C70008A81843008F46CCFCE01069660E10E9430
:100C8000A5138C838C81882311F41D8205C08C816F
:100C9000843011F481E08D838D81E5960FB6F89450
:100CA000DEBF0FBECDBFCF91DF910895DF93CF930D
:100CB00000D000D00F92CDB7DEB79D838C83EC813E
:100CC000FD8188E580831A8296C08A81282F30E0D2
:100CD000C901880F991F820F931FFC01EC58FF4F29
:100CE00040818A81282F30E0C901880F991F820F27
:100CF000931FFC01EB58FF4F9081842F692F43E035
:100D00000E94BA10198253C08981282F30E0C9018E
:100D1000880F991F820F931FFC01E859FF4F4081F4
:100D20008981282F30E0C901880F991F820F931FF6
:100D3000FC01E759FF4F9081842F692F0E945B19B6
:100D4000882391F58A81482F50E08981282F30E04F
:100D5000CA01880F991F880F991F820F931FFC01EA
:100D6000EA54FF4F8081EC81FD8180838981282FA7
:100D700030E0C901880F991F820F931FFC01E859C9
:100D8000FF4F40818981282F30E0C901880F991FCA
:100D9000820F931FFC01E759FF4F9081842F692F29
:100DA0000E945B19882311F389818F5F8983898170
:100DB000843008F4A9CF8A81282F30E0C901880F38
:100DC000991F820F931FFC01EC58FF4F40818A81CD
:100DD000282F30E0C901880F991F820F931FFC0153
:100DE000EB58FF4F9081842F692F42E00E94BA1088
:100DF0008A818F5F8A838A81843008F466CF1B8260
:100E00008B810F900F900F900F900F90CF91DF91EB
:100E10000895DF93CF9300D000D0CDB7DEB788E53B
:100E20008B831A8294C08A81282F30E0C901880FF1
:100E3000991F820F931FFC01EC58FF4F40818A815C
:100E4000282F30E0C901880F991F820F931FFC01E2
:100E5000EB58FF4F9081842F692F43E00E94BA1016
:100E6000198251C08981282F30E0C901880F991F4C
:100E7000820F931FFC01E859FF4F40818981282F81
:100E800030E0C901880F991F820F931FFC01E759B9
:100E9000FF4F9081842F692F0E945B19882381F571
:100EA0008A81482F50E08981282F30E0CA01880FBD
:100EB000991F880F991F820F931FFC01EA54FF4F5F
:100EC00080818B838981282F30E0C901880F991F89
:100ED000820F931FFC01E859FF4F40818981282F21
:100EE00030E0C901880F991F820F931FFC01E75959
:100EF000FF4F9081842F692F0E945B19882311F383
:100F000089818F5F89838981843008F4ABCF8A819E
:100F1000282F30E0C901880F991F820F931FFC0111
:100F2000EC58FF4F40818A81282F30E0C901880F9B
:100F3000991F820F931FFC01EB58FF4F9081842F64
:100F4000692F42E00E94BA108A818F5F8A838A816A
:100F5000843008F468CF8B810F900F900F900F9022
:100F6000CF91DF910895DF93CF93CDB7DEB7A197EF
:100F70000FB6F894DEBF0FBECDBF198257C089816E
:100F8000482F50E08981282F30E0C901880F991F30
:100F9000820F931FFC01E856FF4F6081CA01880F42
:100FA000991F840F951F9E012F5F3F4F820F931F44
:100FB000FC01339660838981482F50E08981282F76
:100FC00030E0C901880F991F820F931FFC01E7567B
:100FD000FF4F6081CA01880F991F840F951F9E01E2
:100FE0002F5F3F4F820F931FFC01349660838981EE
:100FF000482F50E08981282F30E0C901880F991FC0
:10100000820F931FFC01E656FF4F6081CA01880FD3
:10101000991F840F951F9E012F5F3F4F820F931FD3
:10102000FC013596608389818F5F898389818A304D
:1010300008F4A5CFCE0104966AE00E94A5138A8326
:101040008A81882319F484E08B8305C08A818430E7
:1010500011F483E08B838B81A1960FB6F894DEBFE9
:101060000FBECDBFCF91DF910895DF93CF93CDB762
:10107000DEB76D970FB6F894DEBF0FBECDBF81E02F
:101080008D8F80E090E0A8E4B2E4898F9A8FAB8FD7
:10109000BC8F698D7A8D8B8D9C8D20E030E04AEF7E
:1010A00054E40E941702DC01CB018D8B9E8BAF8B29
:1010B000B88F6D897E898F89988D20E030E040E877
:1010C0005FE30E94710388232CF481E090E09C8B05
:1010D0008B8B3FC06D897E898F89988D20E03FEF93
:1010E0004FE757E40E94110318164CF5698D7A8D6D
:1010F0008B8D9C8D20E030E040E251E40E9417028D
:10110000DC01CB01BC01CD010E944100DC01CB011F
:101110009C8B8B8B0FC088EC90E09A8B898B898994
:101120009A890197F1F79A8B898B8B899C89019712
:101130009C8B8B8B8B899C89009769F714C06D8978
:101140007E898F89988D0E944100DC01CB019C8BA8
:101150008B8B8B899C89988B8F878F85988901973A
:10116000F1F7988B8F8788E30E94540A8FE00E94E2
:10117000540A81E00E94540A80E090E0A0E0B0E4CC
:101180008B879C87AD87BE876B857C858D859E858B
:1011900020E030E04AEF54E40E941702DC01CB016A
:1011A0008F839887A987BA876F81788589859A8583
:1011B00020E030E040E85FE30E94710388232CF4D4
:1011C00081E090E09E838D833FC06F817885898523
:1011D0009A8520E03FEF4FE757E40E94110318166D
:1011E0004CF56B857C858D859E8520E030E040E266
:1011F00051E40E941702DC01CB01BC01CD010E9429
:101200004100DC01CB019E838D830FC088EC90E010
:101210009C838B838B819C810197F1F79C838B83CB
:101220008D819E8101979E838D838D819E81009704
:1012300069F714C06F81788589859A850E9441007D
:10124000DC01CB019E838D838D819E819A8389836E
:1012500089819A810197F1F79A83898386E00E94B8
:10126000540A1D8E8D8D6D960FB6F894DEBF0FBE9D
:10127000CDBFCF91DF910895DF93CF93CDB7DEB788
:101280006E970FB6F894DEBF0FBECDBF8E8F82E093
:101290008D8F80919B0090919C00692F42E00E946D
:1012A000BA1080E06E8D0E94571380919800909143
:1012B0009900692F42E00E94BA1080E090E0A0E817
:1012C000BFE3898F9A8FAB8FBC8F698D7A8D8B8DA1
:1012D0009C8D20E030E04AEF54E40E941702DC01CC
:1012E000CB018D8B9E8BAF8BB88F6D897E898F895B
:1012F000988D20E030E040E85FE30E94710388238E
:101300002CF481E090E09C8B8B8B3FC06D897E89B3
:101310008F89988D20E03FEF4FE757E40E9411033B
:1013200018164CF5698D7A8D8B8D9C8D20E030E000
:1013300040E251E40E941702DC01CB01BC01CD0167
:101340000E944100DC01CB019C8B8B8B0FC088EC91
:1013500090E09A8B898B89899A890197F1F79A8B0A
:10136000898B8B899C8901979C8B8B8B8B899C8922
:10137000009769F714C06D897E898F89988D0E94C6
:101380004100DC01CB019C8B8B8B8B899C89988BDA
:101390008F878F8598890197F1F7988B8F87809138
:1013A000980090919900692F43E00E94BA1080E064
:1013B00090E0A0E8BFE38B879C87AD87BE876B85F5
:1013C0007C858D859E8520E030E04AEF54E40E94C4
:1013D0001702DC01CB018F839887A987BA876F81B9
:1013E000788589859A8520E030E040E85FE30E94B7
:1013F000710388232CF481E090E09E838D833FC0AD
:101400006F81788589859A8520E03FEF4FE757E423
:101410000E94110318164CF56B857C858D859E8581
:1014200020E030E040E251E40E941702DC01CB01F1
:10143000BC01CD010E944100DC01CB019E838D8364
:101440000FC088EC90E09C838B838B819C810197FB
:10145000F1F79C838B838D819E8101979E838D8381
:101460008D819E81009769F714C06F817885898589
:101470009A850E944100DC01CB019E838D838D8182
:101480009E819A83898389819A810197F1F79A8352
:1014900089831D8E8D8D6E960FB6F894DEBF0FBEBC
:1014A000CDBFCF91DF910895DF93CF93CDB7DEB756
:1014B0006E970FB6F894DEBF0FBECDBF8E8F82E061
:1014C0008D8F80919B0090919C00692F43E00E943A
:1014D000BA1080E06E8D0E94571380919800909111
:1014E0009900692F42E00E94BA1080E090E0A0E8E5
:1014F000BFE3898F9A8FAB8FBC8F698D7A8D8B8D6F
:101500009C8D20E030E04AEF54E40E941702DC0199
:10151000CB018D8B9E8BAF8BB88F6D897E898F8928
:10152000988D20E030E040E85FE30E94710388235B
:101530002CF481E090E09C8B8B8B3FC06D897E8981
:101540008F89988D20E03FEF4FE757E40E94110309
:1015500018164CF5698D7A8D8B8D9C8D20E030E0CE
:1015600040E251E40E941702DC01CB01BC01CD0135
:101570000E944100DC01CB019C8B8B8B0FC088EC5F
:1015800090E09A8B898B89899A890197F1F79A8BD8
:10159000898B8B899C8901979C8B8B8B8B899C89F0
:1015A000009769F714C06D897E898F89988D0E9494
:1015B0004100DC01CB019C8B8B8B8B899C89988BA8
:1015C0008F878F8598890197F1F7988B8F87809106
:1015D000980090919900692F43E00E94BA1080E032
:1015E00090E0A0E8BFE38B879C87AD87BE876B85C3
:1015F0007C858D859E8520E030E04AEF54E40E9492
:101600001702DC01CB018F839887A987BA876F8186
:10161000788589859A8520E030E040E85FE30E9484
:10162000710388232CF481E090E09E838D833FC07A
:101630006F81788589859A8520E03FEF4FE757E4F1
:101640000E94110318164CF56B857C858D859E854F
:1016500020E030E040E251E40E941702DC01CB01BF
:10166000BC01CD010E944100DC01CB019E838D8332
:101670000FC088EC90E09C838B838B819C810197C9
:10168000F1F79C838B838D819E8101979E838D834F
:101690008D819E81009769F714C06F817885898557
:1016A0009A850E944100DC01CB019E838D838D8150
:1016B0009E819A83898389819A810197F1F79A8320
:1016C00089831D8E8D8D6E960FB6F894DEBF0FBE8A
:1016D000CDBFCF91DF910895DF93CF9300D0CDB7E9
:1016E000DEB78A8381E089838A810E943C098981EF
:1016F0000F900F90CF91DF910895DF93CF9300D09B
:1017000000D00F92CDB7DEB78A836B835D834C83A5
:1017100081E089838C819D81009749F08A816B816A
:101720000E94A00B89838C819D810E943D0C898140
:101730000F900F900F900F900F90CF91DF91089521
:10174000DF93CF9300D00F92CDB7DEB78A836B8340
:1017500081E089838A81813019F08A818230D1F4D5
:101760008B818823B9F08B818131A0F48A8181300B
:1017700039F48B81815080680E94540A19820CC010
:101780008A81823049F48B818150806C0E94540A96
:10179000198202C081E0898389810F900F900F9098
:1017A000CF91DF910895DF93CF93CDB7DEB76497E4
:1017B0000FB6F894DEBF0FBECDBF9C8B8B8B1A8209
:1017C00019828B899C89009721F480E30E946C0B1D
:1017D0004AC08B899C8999235CF58B899C8990955B
:1017E00081959F4F9C8B8B8B8DE20E946C0B20C050
:1017F0008981E82FFF27E7FDF0958B899C892AE0F6
:1018000030E0B9010E946C1A282F205DCE010396AA
:10181000E80FF91F208389818F5F89838B899C89D9
:101820002AE030E0B9010E946C1ACB019C8B8B8BB3
:101830008B899C890097E1F689818150898310C04A
:101840008981282F332727FD3095CE010396FC018F
:10185000E20FF31F80810E946C0B89818150898384
:10186000898188236CF78A8164960FB6F894DEBF6D
:101870000FBECDBFCF91DF910895DF93CF9300D0FE
:1018800000D0CDB7DEB79C838B8381E08A83198239
:101890000EC08981282F30E08B819C81FC01E20FF2
:1018A000F31F80810E946C0B89818F5F89838981FE
:1018B000282F30E08B819C81FC01E20FF31F808197
:1018C000882339F78A810F900F900F900F90CF9156
:1018D000DF910895DF93CF9300D000D00F92CDB762
:1018E000DEB78B836C834D831A828B816C810E945F
:1018F000A00B198206C080E20E946C0B8D818F5F65
:101900008D8399818D818917B0F78A810F900F900F
:101910000F900F900F90CF91DF910895DF93CF93A9
:1019200000D000D000D0CDB7DEB79B838A836C8314
:101930004D832E8381E08983898126960FB6F894A2
:10194000DEBF0FBECDBFCF91DF910895DF93CF9360
:10195000CDB7DEB72B970FB6F894DEBF0FBECDBF65
:101960008A836B838A81853018F082E08983C0C0C6
:101970008B81823019F08B818330A1F58A81282FE9
:1019800030E03B872A878A859B8581309105D1F09D
:101990002A853B85223031052CF48A859B8500976A
:1019A00061F01EC02A853B852230310581F08A8591
:1019B0009B858330910581F013C0EAE3F0E08FEF5F
:1019C00080830EC0E7E3F0E08FEF808309C0E4E39B
:1019D000F0E08FEF808304C0E1E3F0E08FEF8083DD
:1019E000198286C08B81882321F08B81813009F098
:1019F0007FC08B81282F30E039872887888599859B
:101A0000009739F0288539852130310509F441C026
:101A10006FC08A81282F30E03F832E838E819F8183
:101A200081309105E9F02E813F81223031052CF47F
:101A30008E819F81009761F02AC02E813F812230E4
:101A40003105B1F08E819F8183309105C9F01FC0AF
:101A5000EBE3F0E08FEF8083EAE3F0E0108217C061
:101A6000E8E3F0E08FEF8083EAE3F0E010820FC05C
:101A7000E5E3F0E08FEF8083EAE3F0E0108207C057
:101A8000E2E3F0E08FEF8083EAE3F0E01082198276
:101A90002FC08A81282F30E03D832C838C819D814B
:101AA00081309105C9F02C813D81223031052CF423
:101AB0008C819D81009761F01AC02C813D8122307C
:101AC000310571F08C819D818330910569F00FC0E3
:101AD000EAE3F0E010820BC0EAE3F0E0108207C016
:101AE000EAE3F0E0108203C0EAE3F0E0108219823A
:101AF00084E0898389812B960FB6F894DEBF0FBEF0
:101B0000CDBFCF91DF910895DF93CF93CDB7DEB7EF
:101B10002B970FB6F894DEBF0FBECDBF8A836B83C1
:101B20008A81853018F082E08983D3C08B8182302E
:101B3000A1F58A81282F30E03B872A878A859B85FB
:101B400081309105D1F02A853B85223031052CF476
:101B50008A859B85009761F01EC02A853B852230CF
:101B6000310581F08A859B858330910581F013C012
:101B7000EBE3F0E08FEF80830EC0E8E3F0E08FEF5F
:101B8000808309C0E5E3F0E08FEF808304C0E2E3E7
:101B9000F0E08FEF808319829CC08B81833081F5C8
:101BA0008A81282F30E03987288788859985813078
:101BB0009105C9F028853985223031052CF48885B6
:101BC0009985009761F01AC0288539852230310542
:101BD00071F0888599858330910569F00FC0EBE33A
:101BE000F0E010820BC0E8E3F0E0108207C0E5E30C
:101BF000F0E0108203C0E2E3F0E01082198269C0D5
:101C00008B818823A1F58A81282F30E03F832E83A2
:101C10008E819F8181309105D1F02E813F812230CC
:101C200031052CF48E819F81009761F01EC02E81BA
:101C30003F812230310581F08E819F818330910573
:101C400081F013C0EBE3F0E08FEF80830EC0E8E398
:101C5000F0E08FEF808309C0E5E3F0E08FEF808351
:101C600004C0E2E3F0E08FEF8083198232C08B8101
:101C7000813079F58A81282F30E03D832C838C8157
:101C80009D8181309105C9F02C813D812230310543
:101C90002CF48C819D81009761F01AC02C813D81CC
:101CA0002230310571F08C819D818330910569F07E
:101CB0000FC0EBE3F0E010820BC0E8E3F0E010822D
:101CC00007C0E5E3F0E0108203C0E2E3F0E0108239
:101CD000198284E0898389812B960FB6F894DEBF40
:101CE0000FBECDBFCF91DF910895DF93CF9300D08A
:101CF00000D000D0CDB7DEB78A837C836B838A8126
:101D0000853018F082E089833EC08A81282F30E038
:101D10003E832D838D819E8181309105E1F02D815F
:101D20003E81223031052CF48D819E81009761F037
:101D300027C02D813E8122303105A1F08D819E8109
:101D400083309105B1F01CC0E9E3F0E08081EB81C4
:101D5000FC81808317C0E6E3F0E08081EB81FC81A9
:101D6000808310C0E3E3F0E08081EB81FC8180831D
:101D700009C0E0E3F0E08081EB81FC81808302C058
:101D800085E089831982898126960FB6F894DEBF93
:101D90000FBECDBFCF91DF910895DF93CF93CDB725
:101DA000DEB72C970FB6F894DEBF0FBECDBF8A8387
:101DB0006B834C838A81853030F08B81893018F0B9
:101DC00084E08983CDC18C81823021F08C81833085
:101DD00009F073C08A81282F30E03C872B878B85E0
:101DE0009C858130910549F12B853C852230310558
:101DF0002CF48B859C85009761F05BC02B853C851E
:101E00002230310571F18B859C8583309105E9F194
:101E100050C0AAE3B0E0EAE3F0E08081482F8B8174
:101E2000282F30E081E090E0022E02C0880F991F39
:101E30000A94E2F7842B8C933EC0A7E3B0E0E7E37B
:101E4000F0E08081482F8B81282F30E081E090E006
:101E5000022E02C0880F991F0A94E2F7842B8C93FC
:101E60002AC0A4E3B0E0E4E3F0E08081482F8B8156
:101E7000282F30E081E090E0022E02C0880F991FE9
:101E80000A94E2F7842B8C9316C0A1E3B0E0E1E35F
:101E9000F0E08081482F8B81282F30E081E090E0B6
:101EA000022E02C0880F991F0A94E2F7842B8C93AC
:101EB00002C084E08983198253C18C81882321F078
:101EC0008C81813009F04AC18C81282F30E03A871B
:101ED000298789859A85009739F029853A852130A7
:101EE000310509F4C3C03CC18A81282F30E038870E
:101EF0002F838F8198858130910509F43EC02F8111
:101F00003885223031052CF48F819885009771F047
:101F1000A9C02F8138852230310509F455C08F8141
:101F200098858330910509F476C09CC0ABE3B0E09E
:101F3000EBE3F0E08081482F8B81282F30E081E0B7
:101F400090E002C0880F991F2A95E2F7842B8C93AA
:101F5000AAE3B0E0EAE3F0E08081482F8B81282FEC
:101F600030E081E090E0022E02C0880F991F0A94B1
:101F7000E2F7809584238C9377C0A8E3B0E0E8E390
:101F8000F0E08081482F8B81282F30E081E090E0C5
:101F900002C0880F991F2A95E2F7842B8C93A7E340
:101FA000B0E0E7E3F0E08081482F8B81282F30E01C
:101FB00081E090E0022E02C0880F991F0A94E2F798
:101FC000809584238C9350C0A5E3B0E0E5E3F0E076
:101FD0008081482F8B81282F30E081E090E002C083
:101FE000880F991F2A95E2F7842B8C93A4E3B0E025
:101FF000E4E3F0E08081482F8B81282F30E081E0FE
:1020000090E0022E02C0880F991F0A94E2F7809593
:1020100084238C9329C0A2E3B0E0E2E3F0E0808166
:10202000482F8B81282F30E081E090E002C0880F9C
:10203000991F2A95E2F7842B8C93A1E3B0E0E1E3AA
:10204000F0E08081482F8B81282F30E081E090E004
:10205000022E02C0880F991F0A94E2F7809584230C
:102060008C9302C084E0898319827AC08A81282FE8
:1020700030E03E832D838D819E818130910559F121
:102080002D813E81223031052CF48D819E81009777
:1020900069F060C02D813E812230310589F18D814A
:1020A0009E818330910509F440C054C0AAE3B0E09A
:1020B000EAE3F0E08081482F8B81282F30E081E037
:1020C00090E0022E02C0880F991F0A94E2F78095D3
:1020D00084238C9341C0A7E3B0E0E7E3F0E0808184
:1020E000482F8B81282F30E081E090E0022E02C043
:1020F000880F991F0A94E2F7809584238C932CC053
:10210000A4E3B0E0E4E3F0E08081482F8B81282F46
:1021100030E081E090E0022E02C0880F991F0A94FF
:10212000E2F7809584238C9317C0A1E3B0E0E1E34C
:10213000F0E08081482F8B81282F30E081E090E013
:10214000022E02C0880F991F0A94E2F7809584231B
:102150008C9302C084E08983198202C084E0898361
:1021600089812C960FB6F894DEBF0FBECDBFCF91FC
:10217000DF910895DF93CF93CDB7DEB72C970FB6DD
:10218000F894DEBF0FBECDBF8A836B834C838A81F8
:10219000853030F08B81893018F084E08983E8C184
:1021A0008C81823009F073C08A81282F30E03C870F
:1021B0002B878B859C858130910549F12B853C854A
:1021C000223031052CF48B859C85009761F05BC033
:1021D0002B853C852230310571F18B859C858330C0
:1021E0009105E9F150C0ABE3B0E0EBE3F0E08081B2
:1021F000482F8B81282F30E081E090E0022E02C032
:10220000880F991F0A94E2F7842B8C933EC0A8E3B1
:10221000B0E0E8E3F0E08081482F8B81282F30E0A8
:1022200081E090E0022E02C0880F991F0A94E2F725
:10223000842B8C932AC0A5E3B0E0E5E3F0E0808135
:10224000482F8B81282F30E081E090E0022E02C0E1
:10225000880F991F0A94E2F7842B8C9316C0A2E38F
:10226000B0E0E2E3F0E08081482F8B81282F30E05E
:1022700081E090E0022E02C0880F991F0A94E2F7D5
:10228000842B8C9302C084E08983198271C18C8174
:10229000833009F078C08A81282F30E03A87298777
:1022A00089859A858130910559F129853A852230B1
:1022B00031052CF489859A85009769F060C02985DD
:1022C0003A852230310589F189859A8583309105D7
:1022D00009F440C054C0ABE3B0E0EBE3F0E0808130
:1022E000482F8B81282F30E081E090E0022E02C041
:1022F000880F991F0A94E2F7809584238C9341C03C
:10230000A8E3B0E0E8E3F0E08081482F8B81282F3C
:1023100030E081E090E0022E02C0880F991F0A94FD
:10232000E2F7809584238C932CC0A5E3B0E0E5E32D
:10233000F0E08081482F8B81282F30E081E090E011
:10234000022E02C0880F991F0A94E2F78095842319
:102350008C9317C0A2E3B0E0E2E3F0E08081482F65
:102360008B81282F30E081E090E0022E02C0880FA0
:10237000991F0A94E2F7809584238C9302C084E02D
:1023800089831982F5C08C81882309F073C08A8102
:10239000282F30E038872F838F81988581309105F1
:1023A00049F12F813885223031052CF48F819885B1
:1023B000009761F05BC02F8138852230310571F1C3
:1023C0008F81988583309105E9F150C0ABE3B0E08F
:1023D000EBE3F0E08081482F8B81282F30E081E013
:1023E00090E0022E02C0880F991F0A94E2F7842B16
:1023F0008C933EC0A8E3B0E0E8E3F0E08081482F92
:102400008B81282F30E081E090E0022E02C0880FFF
:10241000991F0A94E2F7842B8C932AC0A5E3B0E0BD
:10242000E5E3F0E08081482F8B81282F30E081E0C8
:1024300090E0022E02C0880F991F0A94E2F7842BC5
:102440008C9316C0A2E3B0E0E2E3F0E08081482F75
:102450008B81282F30E081E090E0022E02C0880FAF
:10246000991F0A94E2F7842B8C9302C084E089833D
:1024700019827EC08C81813009F078C08A81282F32
:1024800030E03E832D838D819E818130910559F10D
:102490002D813E81223031052CF48D819E81009763
:1024A00069F060C02D813E812230310589F18D8136
:1024B0009E818330910509F440C054C0ABE3B0E085
:1024C000EBE3F0E08081482F8B81282F30E081E022
:1024D00090E0022E02C0880F991F0A94E2F78095BF
:1024E00084238C9341C0A8E3B0E0E8E3F0E080816E
:1024F000482F8B81282F30E081E090E0022E02C02F
:10250000880F991F0A94E2F7809584238C932CC03E
:10251000A5E3B0E0E5E3F0E08081482F8B81282F30
:1025200030E081E090E0022E02C0880F991F0A94EB
:10253000E2F7809584238C9317C0A2E3B0E0E2E336
:10254000F0E08081482F8B81282F30E081E090E0FF
:10255000022E02C0880F991F0A94E2F78095842307
:102560008C9302C084E08983198202C084E089834D
:1025700089812C960FB6F894DEBF0FBECDBFCF91E8
:10258000DF910895DF93CF93CDB7DEB727970FB6CE
:10259000F894DEBF0FBECDBF8A836B835D834C830F
:1025A0008A81853030F08B81893018F084E089830E
:1025B00074C08A81282F30E03F832E834E815F8153
:1025C0004130510559F18E819F818230910534F45B
:1025D0002E813F812115310569F05CC04E815F81FC
:1025E0004230510579F18E819F818330910509F444
:1025F0003DC050C0E9E3F0E08081282F30E08B81BE
:10260000882F90E0A90102C0559547958A95E2F779
:10261000CA018170EC81FD8180833EC0E6E3F0E079
:102620008081282F30E08B81882F90E0A90102C0A3
:10263000559547958A95E2F7CA018170EC81FD8135
:1026400080832AC0E3E3F0E08081282F30E08B8193
:10265000882F90E0A90102C0559547958A95E2F729
:10266000CA018170EC81FD81808316C0E0E3F0E057
:102670008081282F30E08B81882F90E0A90102C053
:10268000559547958A95E2F7CA018170EC81FD81E5
:10269000808302C085E089831982898127960FB6DD
:1026A000F894DEBF0FBECDBFCF91DF910895DF93C9
:1026B000CF9300D000D00F92CDB7DEB78A836B8363
:1026C00019828A81853018F082E0898335C08A8139
:1026D000282F30E03D832C838C819D8181309105B2
:1026E000D1F02C813D81223031052CF48C819D81EB
:1026F000009761F01FC02C813D812230310581F0AF
:102700008C819D818330910581F014C0EBE3F0E072
:102710008B81808311C0E8E3F0E08B8180830CC063
:10272000E5E3F0E08B81808307C0E2E3F0E08B819A
:10273000808302C085E0898389810F900F900F907C
:102740000F900F90CF91DF910895DF93CF93CDB786
:10275000DEB72F970FB6F894DEBF0FBECDBF9C83B8
:102760008B836D8319821CC58981282F30E0C901B4
:10277000880F991F280F391F8B819C81FC01E20F64
:10278000F31F8081282F30E03F872E878E859F851D
:102790008130910509F451C12E853F8522303105E4
:1027A0002CF48E859F85009771F0F5C42E853F85AA
:1027B0002230310509F47BC28E859F8583309105D7
:1027C00009F4AFC3E8C48981282F30E0C901880F1C
:1027D000991F280F391F8B819C81FC01E20FF31F89
:1027E0008281282F30E03D872C878C859D85813024
:1027F000910509F459C02C853D85223031052CF412
:102800008C859D85009771F015C12C853D85223002
:10281000310509F4CEC08C859D858330910509F47E
:1028200086C008C1AAE3B0E0EAE3F0E08081482F67
:102830008981282F30E0C901880F991F280F391F7F
:102840008B819C81FC01E20FF31F8181282F30E0F6
:1028500081E090E002C0880F991F2A95E2F78095E9
:1028600084238C93ABE3B0E0EBE3F0E08081482F6E
:102870008981282F30E0C901880F991F280F391F3F
:102880008B819C81FC01E20FF31F8181282F30E0B6
:1028900081E090E0022E02C0880F991F0A94E2F7AF
:1028A000842B8C931A8279C4AAE3B0E0EAE3F0E0C7
:1028B0008081482F8981282F30E0C901880F991F16
:1028C000280F391F8B819C81FC01E20FF31F81814E
:1028D000282F30E081E090E002C0880F991F2A95F0
:1028E000E2F7809584238C93ABE3B0E0EBE3F0E078
:1028F0008081482F8981282F30E0C901880F991FD6
:10290000280F391F8B819C81FC01E20FF31F81810D
:10291000282F30E081E090E0022E02C0880F991F3E
:102920000A94E2F7809584238C931A8236C4AAE332
:10293000B0E0EAE3F0E08081482F8981282F30E081
:10294000C901880F991F280F391F8B819C81FC01B9
:10295000E20FF31F8181282F30E081E090E002C078
:10296000880F991F2A95E2F7842B8C93ABE3B0E094
:10297000EBE3F0E08081482F8981282F30E0C90106
:10298000880F991F280F391F8B819C81FC01E20F52
:10299000F31F8181282F30E081E090E0022E02C0F9
:1029A000880F991F0A94E2F7809584238C931A82EA
:1029B000F4C3AAE3B0E0EAE3F0E08081482F898124
:1029C000282F30E0C901880F991F280F391F8B81EC
:1029D0009C81FC01E20FF31F8181282F30E081E010
:1029E00090E002C0880F991F2A95E2F7842B8C9300
:1029F000ABE3B0E0EBE3F0E08081482F8981282F42
:102A000030E0C901880F991F280F391F8B819C81E5
:102A1000FC01E20FF31F8181282F30E081E090E07C
:102A2000022E02C0880F991F0A94E2F7842B8C9320
:102A30001A82B3C384E08A83B0C38981282F30E02F
:102A4000C901880F991F280F391F8B819C81FC01B8
:102A5000E20FF31F8281282F30E03B872A878A8587
:102A60009B858130910509F459C02A853B85223028
:102A700031052CF48A859B85009771F015C12A8554
:102A80003B852230310509F4CEC08A859B85833091
:102A9000910509F486C008C1A7E3B0E0E7E3F0E0E0
:102AA0008081482F8981282F30E0C901880F991F24
:102AB000280F391F8B819C81FC01E20FF31F81815C
:102AC000282F30E081E090E002C0880F991F2A95FE
:102AD000E2F7809584238C93A8E3B0E0E8E3F0E08C
:102AE0008081482F8981282F30E0C901880F991FE4
:102AF000280F391F8B819C81FC01E20FF31F81811C
:102B0000282F30E081E090E0022E02C0880F991F4C
:102B10000A94E2F7842B8C931A823FC3A7E3B0E0B8
:102B2000E7E3F0E08081482F8981282F30E0C90158
:102B3000880F991F280F391F8B819C81FC01E20FA0
:102B4000F31F8181282F30E081E090E002C0880FE0
:102B5000991F2A95E2F7809584238C93A8E3B0E02F
:102B6000E8E3F0E08081482F8981282F30E0C90117
:102B7000880F991F280F391F8B819C81FC01E20F60
:102B8000F31F8181282F30E081E090E0022E02C007
:102B9000880F991F0A94E2F7809584238C931A82F8
:102BA000FCC2A7E3B0E0E7E3F0E08081482F898131
:102BB000282F30E0C901880F991F280F391F8B81FA
:102BC0009C81FC01E20FF31F8181282F30E081E01E
:102BD00090E002C0880F991F2A95E2F7842B8C930E
:102BE000A8E3B0E0E8E3F0E08081482F8981282F56
:102BF00030E0C901880F991F280F391F8B819C81F4
:102C0000FC01E20FF31F8181282F30E081E090E08A
:102C1000022E02C0880F991F0A94E2F78095842340
:102C20008C931A82BAC2A7E3B0E0E7E3F0E08081B8
:102C3000482F8981282F30E0C901880F991F280F5C
:102C4000391F8B819C81FC01E20FF31F8181282FAA
:102C500030E081E090E002C0880F991F2A95E2F7EA
:102C6000842B8C93A8E3B0E0E8E3F0E08081482F68
:102C70008981282F30E0C901880F991F280F391F3B
:102C80008B819C81FC01E20FF31F8181282F30E0B2
:102C900081E090E0022E02C0880F991F0A94E2F7AB
:102CA000842B8C931A8279C284E08A8376C28981CC
:102CB000282F30E0C901880F991F280F391F8B81F9
:102CC0009C81FC01E20FF31F8281282F30E03987BD
:102CD0002887888599858130910509F459C0288510
:102CE0003985223031052CF488859985009771F05B
:102CF00015C1288539852230310509F4CEC0888573
:102D000099858330910509F486C008C1A4E3B0E039
:102D1000E4E3F0E08081482F8981282F30E0C90169
:102D2000880F991F280F391F8B819C81FC01E20FAE
:102D3000F31F8181282F30E081E090E002C0880FEE
:102D4000991F2A95E2F7809584238C93A5E3B0E040
:102D5000E5E3F0E08081482F8981282F30E0C90128
:102D6000880F991F280F391F8B819C81FC01E20F6E
:102D7000F31F8181282F30E081E090E0022E02C015
:102D8000880F991F0A94E2F7842B8C931A8205C24C
:102D9000A4E3B0E0E4E3F0E08081482F8981282FAC
:102DA00030E0C901880F991F280F391F8B819C8142
:102DB000FC01E20FF31F8181282F30E081E090E0D9
:102DC00002C0880F991F2A95E2F7809584238C937F
:102DD000A5E3B0E0E5E3F0E08081482F8981282F6A
:102DE00030E0C901880F991F280F391F8B819C8102
:102DF000FC01E20FF31F8181282F30E081E090E099
:102E0000022E02C0880F991F0A94E2F7809584234E
:102E10008C931A82C2C1A4E3B0E0E4E3F0E08081C5
:102E2000482F8981282F30E0C901880F991F280F6A
:102E3000391F8B819C81FC01E20FF31F8181282FB8
:102E400030E081E090E002C0880F991F2A95E2F7F8
:102E5000842B8C93A5E3B0E0E5E3F0E08081482F7C
:102E60008981282F30E0C901880F991F280F391F49
:102E70008B819C81FC01E20FF31F8181282F30E0C0
:102E800081E090E0022E02C0880F991F0A94E2F7B9
:102E9000809584238C931A8280C1A4E3B0E0E4E39C
:102EA000F0E08081482F8981282F30E0C901880F08
:102EB000991F280F391F8B819C81FC01E20FF31FA2
:102EC0008181282F30E081E090E002C0880F991FB7
:102ED0002A95E2F7842B8C93A5E3B0E0E5E3F0E0DC
:102EE0008081482F8981282F30E0C901880F991FE0
:102EF000280F391F8B819C81FC01E20FF31F818118
:102F0000282F30E081E090E0022E02C0880F991F48
:102F10000A94E2F7842B8C931A823FC184E08A835F
:102F20003CC18981282F30E0C901880F991F280FE3
:102F3000391F8B819C81FC01E20FF31F8281282FB6
:102F400030E03F832E838E819F818130910509F48B
:102F500059C02E813F81223031052CF48E819F8112
:102F6000009771F015C12E813F812230310509F49F
:102F7000CEC08E819F818330910509F486C008C13F
:102F8000A1E3B0E0E1E3F0E08081482F8981282FC0
:102F900030E0C901880F991F280F391F8B819C8150
:102FA000FC01E20FF31F8181282F30E081E090E0E7
:102FB00002C0880F991F2A95E2F7809584238C938D
:102FC000A2E3B0E0E2E3F0E08081482F8981282F7E
:102FD00030E0C901880F991F280F391F8B819C8110
:102FE000FC01E20FF31F8181282F30E081E090E0A7
:102FF000022E02C0880F991F0A94E2F7842B8C934B
:103000001A82CBC0A1E3B0E0E1E3F0E08081482F79
:103010008981282F30E0C901880F991F280F391F97
:103020008B819C81FC01E20FF31F8181282F30E00E
:1030300081E090E002C0880F991F2A95E2F7809501
:1030400084238C93A2E3B0E0E2E3F0E08081482F98
:103050008981282F30E0C901880F991F280F391F57
:103060008B819C81FC01E20FF31F8181282F30E0CE
:1030700081E090E0022E02C0880F991F0A94E2F7C7
:10308000809584238C931A8288C0A1E3B0E0E1E3A9
:10309000F0E08081482F8981282F30E0C901880F16
:1030A000991F280F391F8B819C81FC01E20FF31FB0
:1030B0008181282F30E081E090E002C0880F991FC5
:1030C0002A95E2F7842B8C93A2E3B0E0E2E3F0E0F0
:1030D0008081482F8981282F30E0C901880F991FEE
:1030E000280F391F8B819C81FC01E20FF31F818126
:1030F000282F30E081E090E0022E02C0880F991F57
:103100000A94E2F7809584238C931A8246C0A1E347
:10311000B0E0E1E3F0E08081482F8981282F30E0A2
:10312000C901880F991F280F391F8B819C81FC01D1
:10313000E20FF31F8181282F30E081E090E002C090
:10314000880F991F2A95E2F7842B8C93A2E3B0E0B5
:10315000E2E3F0E08081482F8981282F30E0C90127
:10316000880F991F280F391F8B819C81FC01E20F6A
:10317000F31F8181282F30E081E090E0022E02C011
:10318000880F991F0A94E2F7842B8C931A8205C04A
:1031900084E08A8302C084E08A8389818F5F898387
:1031A00099818D81981708F4DFCA8A812F960FB60E
:1031B000F894DEBF0FBECDBFCF91DF910895DF93AE
:1031C000CF9300D000D00F92CDB7DEB78A836B8348
:1031D00086E089838B818F708B838A81282F30E0F2
:1031E0003D832C838C819D818130910531F12C812F
:1031F0003D81223031052CF48C819D81009761F056
:103200004FC02C813D812230310541F18C819D815F
:1032100083309105A1F144C0ABE3B0E0EBE3F0E013
:103220008081807F8C93ABE3B0E0EBE3F0E09081B2
:103230008B81892B8C93198235C0A8E3B0E0E8E339
:10324000F0E08081807F8C93A8E3B0E0E8E3F0E0D9
:1032500090818B81892B8C93198224C0A5E3B0E0E7
:10326000E5E3F0E08081807F8C93A5E3B0E0E5E3C7
:10327000F0E090818B81892B8C93198213C0A2E39B
:10328000B0E0E2E3F0E08081807F8C93A2E3B0E0E5
:10329000E2E3F0E090818B81892B8C93198202C04C
:1032A00086E0898389810F900F900F900F900F9087
:1032B000CF91DF910895DF93CF9300D000D00F928C
:1032C000CDB7DEB78A836B838A81853030F08B81FE
:1032D000893018F08FEF89836AC08A81282F30E007
:1032E0003D832C834C815D814130510541F18C81BE
:1032F0009D818230910534F42C813D812115310569
:1033000061F053C04C815D814230510551F18C8197
:103310009D8183309105B9F148C0E9E3F0E08081F7
:10332000282F30E08B81882F90E0A90102C05595AD
:1033300047958A95E2F7CA018170898338C0E6E330
:10334000F0E08081282F30E08B81882F90E0A90168
:1033500002C0559547958A95E2F7CA018170898325
:1033600026C0E3E3F0E08081282F30E08B81882FB6
:1033700090E0A90102C0559547958A95E2F7CA01E8
:103380008170898314C0E0E3F0E08081282F30E071
:103390008B81882F90E0A90102C0559547958A95A9
:1033A000E2F7CA018170898302C08FEF8983898126
:1033B0000F900F900F900F900F90CF91DF91089585
:1033C000DF93CF93CDB7DEB72F970FB6F894DEBF5C
:1033D0000FBECDBF0E94B3070E9435080E949B0517
:1033E0000E9409078F878F858835D1F38F850E94CA
:1033F0006C0B80E090E0A1E6B4E48B879C87AD87FE
:10340000BE876B857C858D859E8520E030E04AEF08
:1034100054E40E941702DC01CB018F839887A987AF
:10342000BA876F81788589859A8520E030E040E809
:103430005FE30E94710388232CF481E090E09E8377
:103440008D833FC06F81788589859A8520E03FEF25
:103450004FE757E40E94110318164CF56B857C85E5
:103460008D859E8520E030E040E251E40E94170205
:10347000DC01CB01BC01CD010E944100DC01CB018C
:103480009E838D830FC088EC90E09C838B838B811F
:103490009C810197F1F79C838B838D819E8101979D
:1034A0009E838D838D819E81009769F799CF6F816F
:1034B000788589859A850E944100DC01CB019E8335
:1034C0008D838D819E819A83898389819A810197D9
:1034D000F1F79A83898384CF97FB092E07260AD0B8
:1034E00077FD04D00CD006D000201AF470956195B9
:1034F0007F4F0895F6F7909581959F4F0895AA1BE9
:10350000BB1B51E107C0AA1FBB1FA617B70710F0CE
:10351000A61BB70B881F991F5A95A9F78095909500
:10352000BC01CD0108952F923F924F925F926F920E
:103530007F928F929F92AF92BF92CF92DF92EF9243
:10354000FF920F931F93CF93DF93CDB7DEB7CA1BC4
:10355000DB0B0FB6F894DEBF0FBECDBF09942A88EF
:10356000398848885F846E847D848C849B84AA8497
:10357000B984C884DF80EE80FD800C811B81AA8124
:10358000B981CE0FD11D0FB6F894DEBF0FBECDBFEF
:08359000ED010895F894FFCF4E
:10359800000000000000000002000002010002021A
:1035A80000020300020402020502020602020702E8
:1035B8000000000000000000000000000000000003
:1035C80000000000000000000100030101030000EA
:1035D80003000103000203000303000403000503C2
:1035E8000006030007033738392F3435362A3132BD
:0635F800332D4F303D2B86
:00000001FF
