S01400004156525F41746D65676133322E7372656314
S11300000C942A000C943F000C943F000C943F0085
S11300100C943F000C943F000C943F000C943F0060
S11300200C943F000C943F000C943F000C943F0050
S11300300C943F000C943F000C943F000C943F0040
S11300400C943F000C943F000C943F000C943F0030
S11300500C943F0011241FBECFE5D8E0DEBFCDBF16
S113006010E0A0E6B0E0ECE2F4E002C005900D92EE
S1130070A036B107D9F70E94CB010C9414020C945A
S11300800000853018F0693008F07BC09EEF940FB3
S11300909230C0F5813091F028F08230D9F083306D
S11300A029F171C02AB381E090E002C0880F991F42
S11300B06A95E2F7822B8ABB80E0089527B381E03A
S11300C090E002C0880F991F6A95E2F7822B87BBE4
S11300D080E0089521B381E090E002C0880F991F69
S11300E06A95E2F7822B81BB80E0089524B381E016
S11300F090E002C0880F991F6A95E2F7822B84BBB7
S113010080E00895423008F040C0813099F028F032
S11301108230E9F0833041F13AC02AB381E090E0C3
S113012002C0880F991F6A95E2F7809582238ABBE3
S113013080E0089527B381E090E002C0880F991F02
S11301406A95E2F78095822387BB80E0089524B303
S113015081E090E002C0880F991F6A95E2F78095CC
S1130160822384BB80E0089521B381E090E002C043
S1130170880F991F6A95E2F78095822381BB80E0FE
S1130180089584E0089580E0089584E0089580E06F
S11301900895853018F0693008F0F1C04230C1F597
S11301A0813091F028F08230D9F0833029F1E9C010
S11301B02BB381E090E002C0880F991F6A95E2F7A3
S11301C0822B8BBB80E0089528B381E090E002C0CD
S11301D0880F991F6A95E2F7822B88BB80E0089507
S11301E022B381E090E002C0880F991F6A95E2F77C
S11301F0822B82BB80E0089525B381E090E002C0A9
S1130200880F991F6A95E2F7822B85BB80E00895D9
S11302104330E1F5813001F128F0823081F0833000
S113022041F1B1C02BB381E090E002C0880F991F67
S11302306A95E2F7809582238BBB80E0089528B30A
S113024081E090E002C0880F991F6A95E2F78095DB
S1130250822388BB80E0089525B381E090E002C04A
S1130260880F991F6A95E2F78095822385BB80E009
S1130270089522B381E090E002C0880F991F6A9527
S1130280E2F78095822382BB80E00895411138C053
S1130290813091F028F08230D9F0833029F175C093
S11302A02BB381E090E002C0880F991F6A95E2F7B2
S11302B0822B8BBB80E0089528B381E090E002C0DC
S11302C0880F991F6A95E2F7822B88BB80E0089516
S11302D025B381E090E002C0880F991F6A95E2F788
S11302E0822B85BB80E0089522B381E090E002C0B8
S11302F0880F991F6A95E2F7822B82BB80E00895EC
S1130300413009F044C0813099F028F08230E9F09E
S1130310833041F13EC02BB381E090E002C0880FEE
S1130320991F6A95E2F7809582238BBB80E008953C
S113033028B381E090E002C0880F991F6A95E2F724
S11303408095822388BB80E0089525B381E090E006
S113035002C0880F991F6A95E2F78095822385BBB6
S113036080E0089522B381E090E002C0880F991FD5
S11303706A95E2F78095822382BB80E0089584E049
S1130380089580E0089580E0089580E0089584E071
S1130390089580E0089543E060E080E00E94410019
S11303A043E061E080E00E94410043E062E080E0DD
S11303B00E9441002FEF84E39CE021508040904054
S11303C0E1F700C0000042E060E080E00E94C90064
S11303D042E061E080E00E94C9002FEF84E39CE0EA
S11303E0215080409040E1F700C0000043E061E00C
S11303F080E00E94C90043E060E080E00E94C90000
S113040042E062E080E00E94C9002FEF84E39CE0B8
S1130410215080409040E1F700C0000043E062E0DA
S10F042080E00E94C900C6CFF894FFCF12
S9030000FC
